:0400000000001200EA
:0402000016EF11F0F4
:08020800046ED8CF05F0E0CF31
:1002100006F00001E9CF0CF0EACF07F0E1CF08F0DB
:10022000E2CF09F0D9CF0AF0DACF0BF0F3CF12F01A
:10023000F4CF13F0FACF14F0F5CF15F0F6CF16F097
:10024000F7CF17F000C00EF001C00FF002C010F0A1
:1002500003C011F0F2A830EF01F0F2B2FAEF01F0B2
:100260009DAA36EF01F09EBA0FEF02F00EC000F02B
:100270000FC001F010C002F011C003F00CC0E9FF84
:1002800007C0EAFF078E08C0E1FF09C0E2FF0AC00D
:10029000D9FF0BC0DAFF12C0F3FF13C0F4FF14C084
:1002A000FAFF15C0F5FF16C0F6FF17C0F7FF0450A0
:1002B00006C0E0FF05C0D8FF1000C9CFCDF09E9664
:1002C000C696CCC0C9FFC6AE04D0FF0E016E05D0E5
:1002D00002D09EA6FED7000E016E12008386839088
:1002E0008394C9C0CCF0E9DF0152FBE183801200A6
:1002F000838683908384CBC0CCF0DFDF0152FBE1A7
:10030000838012002A0EC96FE9DFC2C0C9F0CA6B30
:10031000C2C0CBF0EDDFC1C0C9F0CA6BC1C0CBF029
:10032000E7DFC4C0C9F0CA6BC4C0CBF0E1DFC3C013
:10033000C9F0CA6BC3C0CBF0DBDF2B0EC96FCEDFB9
:10034000C6C0C9F0CA6BC6C0CBF0D2DFC5C0C9F009
:10035000CA6BC5C0CBF0CCDFC8C0C9F0CA6BC8C07F
:10036000CBF0C6DFC7C0C9F0CA6BC7C0CBF0C0DFD7
:100370002C0EC96FB3DF1200B2C0BEF0B1C0BDF029
:10038000B4C0C0F0B3C0BFF0B6C0B7F0B5C0B8F0ED
:10039000AEC0C2F0ADC0C1F0B2C0C4F0B1C0C3F0D5
:1003A000B0C0C6F0AFC0C5F0B4C0C8F0B3C0C7F0AD
:1003B000A9DFBA6BB96BBA51BE5D1BE303E1BD5156
:1003C000B95D17E2BC6BBB6BBC51C05D0EE303E1D2
:1003D000BF51BB5D0AE2B7C0CBF08ADFB8C0CBF03B
:1003E00087DFBB2BD8B4BC2BEFD7B92BD8B4BA2B33
:1003F000E2D71200C76A310EC66E9E96AE6BAD6B29
:10040000B06BAF6BB26BF00EB16F010EB46F170E25
:10041000B36FB66BB56BB0DFF29236EF01F0AECFD3
:100420005AF061500BE0010A19E0030A27E0010AC3
:1004300030E0070A39E0010A47E05BD0AE507308AC
:100440000BE16150612A036A5B0FE96E000E032025
:10045000EA6EAECFEFFF01D0616A4DD0AE507308A7
:100460000BE16150612A036A5B0FE96E000E032005
:10047000EA6EAECFEFFF01D0616A3DD06150612AD4
:10048000036A5B0FE96E000E0320EA6EAECFEFFF4A
:1004900032D06150612A036A5B0FE96E000E0320BF
:1004A000EA6EAECFEFFF27D0AE5070080BE161507F
:1004B000612A036A5B0FE96E000E0320EA6EAECF7D
:1004C000EFFF01D0616A17D0AE50700810E1036AE7
:1004D00061505B0FE96E000E0320EA6EAECFEFFFB6
:1004E0005DC059F0586A5E505826000E5922616A64
:1004F00002D0616A00D09E9A36EF01F0949A9488F7
:100500009496C69A3F0EC716C66AC76A310EC66E63
:100510009E961200959E959C959A959895968386A1
:100520004BEF11F0EA6A670EE96EEF500DE0060E30
:10053000016E006A002EFED7012EFBD77B0E006EE7
:10054000002EFED7EF2EF3D7ADEF02F0666A6650AD
:10055000310805E3010E676EE5D7662AF8D7120069
:10056000838683808392F2DF8382F0DFEFDFEEDF2A
:1005700002EF03F067C068F066C069F0196AF2BE66
:10058000198EF29EC26BC16BC46BEF0EC36FC66B4C
:10059000C56B010EC86F3F0EC76FB4DE19BEF28E79
:1005A0006B6A6A6A6B5226E16A50EF0823E36D6A50
:1005B0006C6A6D5001081AE303E16C503F0816E3C2
:1005C000196AF2BE198EF29E68C0CBF091DE19BE98
:1005D000F28E196AF2BE198EF29E69C0CBF088DEE7
:1005E00019BEF28E6C2AD8B46D2AE3D76A2AD8B421
:1005F0006B2AD8D712009590959495928380839416
:100600008392AED7196AF2BE198EF29ECB0EC96FD5
:1006100065DE19BEF28E196AF2BE198EF29E390E8F
:10062000CB6F66DE19BEF28E196AF2BE198EF29E8B
:100630002C0ECB6F5DDE19BEF28E196AF2BE198EDA
:10064000F29ECB6B55DE19BEF28E196AF2BE198E80
:10065000F29E340ECB6F4CDE19BEF28E196AF2BEDA
:10066000198EF29E020ECB6F43DE19BEF28E196A0E
:10067000F2BE198EF29ECF0EC96F30DE19BEF28E19
:10068000196AF2BE198EF29ECB6B32DE19BEF28E63
:10069000196AF2BE198EF29EC10ECB6F29DE19BE09
:1006A000F28E196AF2BE198EF29E300ECB6F20DEEA
:1006B00019BEF28E196AF2BE198EF29EE80EC96F4B
:1006C0000DDE19BEF28E196AF2BE198EF29E850EEB
:1006D000CB6F0EDE19BEF28E196AF2BE198EF29E33
:1006E000CB6B06DE19BEF28E196AF2BE198EF29E2F
:1006F000780ECB6FFDDD19BEF28E196AF2BE198E2F
:10070000F29EEA0EC96FEADD19BEF28E196AF2BED8
:10071000198EF29ECB6BECDD19BEF28E196AF2BE19
:10072000198EF29ECB6BE4DD19BEF28E196AF2BE11
:10073000198EF29EED0EC96FD1DD19BEF28E196AC7
:10074000F2BE198EF29E640ECB6FD2DD19BEF28E10
:10075000196AF2BE198EF29E030ECB6FC9DD19BE67
:10076000F28E196AF2BE198EF29E120ECB6FC0DDA8
:1007700019BEF28E196AF2BE198EF29E810ECB6FEF
:10078000B7DD19BEF28E196AF2BE198EF29EF70E0F
:10079000C96FA4DD19BEF28E196AF2BE198EF29EDF
:1007A000200ECB6FA5DD19BEF28E196AF2BE198E2E
:1007B000F29EC00EC96F92DD19BEF28E196AF2BEAA
:1007C000198EF29E230ECB6F93DD19BEF28E196A3D
:1007D000F2BE198EF29EC10EC96F80DD19BEF28E77
:1007E000196AF2BE198EF29E100ECB6F81DD19BE12
:1007F000F28E196AF2BE198EF29EC50EC96F6EDDB9
:1008000019BEF28E196AF2BE198EF29E3E0ECB6FA1
:100810006FDD19BEF28E196AF2BE198EF29E280E95
:10082000CB6F66DD19BEF28E196AF2BE198EF29E8A
:10083000C70EC96F53DD19BEF28E196AF2BE198E4A
:10084000F29E860ECB6F54DD19BEF28E196AF2BE8F
:10085000198EF29E360EC96F41DD19BEF28E196AED
:10086000F2BE198EF29E880ECB6F42DD19BEF28E5B
:10087000196AF2BE198EF29E3A0EC96F2FDD19BEAB
:10088000F28E196AF2BE198EF29E550ECB6F30DDD4
:1008900019BEF28E196AF2BE198EF29EB10EC96FA0
:1008A0001DDD19BEF28E196AF2BE198EF29ECB6B57
:1008B0001FDD19BEF28E196AF2BE198EF29E180E55
:1008C000CB6F16DD19BEF28E196AF2BE198EF29E3A
:1008D000B60EC96F03DD19BEF28E196AF2BE198E0B
:1008E000F29E080ECB6F04DD19BEF28E196AF2BEBD
:1008F000198EF29E820ECB6FFBDC19BEF28E196A46
:10090000F2BE198EF29E270ECB6FF2DC19BEF28E6C
:10091000196AF2BE198EF29EF20EC96FDFDC19BEA3
:10092000F28E196AF2BE198EF29ECB6BE1DC19BE13
:10093000F28E196AF2BE198EF29E260EC96FCEDCB7
:1009400019BEF28E196AF2BE198EF29E010ECB6F9D
:10095000CFDC19BEF28E196AF2BE198EF29EE00E3D
:10096000C96FBCDC19BEF28E196AF2BE198EF29EF6
:100970000F0ECB6FBDDC19BEF28E196AF2BE198E56
:10098000F29E310ECB6FB4DC19BEF28E196AF2BE44
:10099000198EF29E2B0ECB6FABDC19BEF28E196A4C
:1009A000F2BE198EF29E0C0ECB6FA2DC19BEF28E37
:1009B000196AF2BE198EF29E0E0ECB6F99DC19BE2B
:1009C000F28E196AF2BE198EF29E080ECB6F90DC81
:1009D00019BEF28E196AF2BE198EF29E4E0ECB6FC0
:1009E00087DC19BEF28E196AF2BE198EF29EF10EE4
:1009F000CB6F7EDC19BEF28E196AF2BE198EF29EA2
:100A0000370ECB6F75DC19BEF28E196AF2BE198EE5
:100A1000F29E070ECB6F6CDC19BEF28E196AF2BE25
:100A2000198EF29E100ECB6F63DC19BEF28E196A1E
:100A3000F2BE198EF29E030ECB6F5ADC19BEF28EF7
:100A4000196AF2BE198EF29E0E0ECB6F51DC19BEE2
:100A5000F28E196AF2BE198EF29E090ECB6F48DC37
:100A600019BEF28E196AF2BE198EF29ECB6B40DC73
:100A700019BEF28E196AF2BE198EF29EE10EC96F8E
:100A80002DDC19BEF28E196AF2BE198EF29ECB6B66
:100A90002FDC19BEF28E196AF2BE198EF29E0E0E6E
:100AA000CB6F26DC19BEF28E196AF2BE198EF29E49
:100AB000140ECB6F1DDC19BEF28E196AF2BE198EB0
:100AC000F29E030ECB6F14DC19BEF28E196AF2BED1
:100AD000198EF29E110ECB6F0BDC19BEF28E196AC5
:100AE000F2BE198EF29E070ECB6F02DC19BEF28E9B
:100AF000196AF2BE198EF29E310ECB6F78EC01F0BE
:100B000019BEF28E196AF2BE198EF29EC10ECB6F1B
:100B100078EC01F019BEF28E196AF2BE198EF29EBF
:100B2000480ECB6F78EC01F019BEF28E196AF2BE56
:100B3000198EF29E080ECB6F78EC01F019BEF28E82
:100B4000196AF2BE198EF29E0F0ECB6F78EC01F08F
:100B500019BEF28E196AF2BE198EF29E0C0ECB6F80
:100B600078EC01F019BEF28E196AF2BE198EF29E6F
:100B7000310ECB6F78EC01F019BEF28E196AF2BE1D
:100B8000198EF29E360ECB6F78EC01F019BEF28E04
:100B9000196AF2BE198EF29E0F0ECB6F78EC01F03F
:100BA00019BEF28E196AF2BE198EF29E110EC96F2D
:100BB0006EEC01F019BEF28EC9DCC8DCC7DC196A24
:100BC000F2BE198EF29E290EC96F6EEC01F019BEAD
:100BD000F28E67686668CEDC4DEF11F0948E949CBF
:100BE000A40EAC6E900EAB6E810EAF6EC00EF26EA8
:100BF0009D8A4FEF11F0010E936EF288F19CF28EF8
:100C000051EF11F0196AF2BE198EF29E2A0EC96FC9
:100C10006EEC01F019BEF28EA5C0A8F0A96B196A9E
:100C2000F2BE198EF29EA5C0CBF078EC01F019BE91
:100C3000F28EA4C0A8F0A96B196AF2BE198EF29EBA
:100C4000A4C0CBF078EC01F019BEF28EA5C0A8F0DC
:100C5000A96B196AF2BE198EF29EA5C0CBF078EC92
:100C600001F019BEF28EA4C0A8F0A96B196AF2BEF9
:100C7000198EF29EA4C0CBF078EC01F019BEF28E72
:100C8000196AF2BE198EF29E2B0EC96F6EEC01F03E
:100C900019BEF28EA7C0A8F0A96B196AF2BE198E10
:100CA000F29EA7C0CBF078EC01F019BEF28EA6C080
:100CB000A8F0A96B196AF2BE198EF29EA6C0CBF0FD
:100CC00078EC01F019BEF28EA7C0A8F0A96B196AE2
:100CD000F2BE198EF29EA7C0CBF078EC01F019BEDF
:100CE000F28EA6C0A8F0A96B196AF2BE198EF29E08
:100CF000A6C0CBF078EC01F019BEF28E196AF2BEF4
:100D0000198EF29E2C0EC96F6EEC01F019BEF28E98
:100D100093EF06F09FC0A5F09EC0A4F0A1C0A7F07D
:100D2000A0C0A6F06FD7A3C0A4F0A56B196AF2BE4D
:100D3000198EF29EA3C0CBF078EC01F019BEF28EB2
:100D4000A2C0A4F0A56B196AF2BE198EF29EA2C0D1
:100D5000CBF078EC01F019BEF28E12008051845D68
:100D6000926F81518559936F8251865D946F835143
:100D70008759956F976B966B996B986B9B6B9A6B7A
:100D80009D6B9C6B925302E1935303E0976B010EB2
:100D9000966F945302E1955303E0996B010E986F9F
:100DA000925302E1935303E09B6B010E9A6F93C041
:100DB0008DF092C08CF095C08FF094C08EF08F5162
:100DC0008D5D04E314E18C518E5D11E395C08DF0CF
:100DD00094C08CF093C08FF092C08EF0945302E1D7
:100DE000955303E09D6B010E9C6F9B6B9A6BD890A3
:100DF0008D31916F8C31906F8B6B8A6B8B518D5DC8
:100E000035E303E18A518C5D31E381C09FF080C0FE
:100E10009EF083C0A1F082C0A0F089C0A3F088C07A
:100E2000A2F078DF8E5190278F51912391518D5DE3
:100E300004E310E18C51905D0DE38C51905F8D5176
:100E4000915B965180279751812398518227995120
:100E5000832308D09A5180279B5181239C5182275C
:100E60009D5183238A2BD8B48B2BC8D71200676A75
:100E7000666ABAEC02F0816B806B010E836F170E0D
:100E8000826F856BF00E846F010E876F170E866F71
:100E9000A50E896F140E886F61DF196AF2BE198E74
:100EA000F29EAE6B280EAD6F010EB06F180EAF6FD5
:100EB000B26B500EB16F010EB46F3F0EB36FB669D7
:100EC000B569BCEC01F019BEF28E196AF2BE198E3A
:100ED000F29EAE6B500EAD6F010EB06F180EAF6F7D
:100EE000B26B780EB16F010EB46F3F0EB36FF80E98
:100EF000B66FB56BBCEC01F019BEF28E196AF2BE8A
:100F0000198EF29EAE6B780EAD6F010EB06F180E9B
:100F1000AF6FB26BA00EB16F010EB46F3F0EB36F27
:100F2000070EB66FE00EB56FBCEC01F019BEF28E85
:100F3000196AF2BE198EF29EAE6BA00EAD6F010E55
:100F4000B06F180EAF6FB26BC80EB16F010EB46FF9
:100F50003F0EB36FB66B1F0EB56FBCEC01F019BE40
:100F6000F28E196AF2BE198EF29EAE6BC80EAD6F8C
:100F7000010EB06F180EAF6FB26BF00EB16F010EB5
:100F8000B46F3F0EB36FB669E00EB56FBCEC01F005
:100F900019BEF28E53EF11F0959C9598838C83982F
:100FA00083808396010EC96E9EA6FED79E96800E04
:100FB000C96E9EA6FED79E96C9500F0B716E706AC1
:100FC000C96A9EA6FED79E96C95070128386958CDC
:100FD000958870C001F071C002F097EF0BF08E0E93
:100FE000006E7BC001F07AC002F0036A015209E191
:100FF00002C001F0026A080E005E015202E1006ABE
:1010000008D0D89001BE04D0023601360006F9D7C8
:10101000019E12008BC092F08F51921B92AF05D0AF
:10102000D894D8908BBFD8802FD08BC092F08EC030
:1010300093F08A51935F06E092AF26D0D850010A10
:10104000D86E22D08FC093F08B51935F06E092AFA1
:101050001BD0D850010AD86E17D090C093F08C5195
:10106000935F06E092AF10D0D850010AD86E0CD032
:1010700091C093F08D51935F06E092AF05D0D850A8
:10108000010AD86E01D0D8901200800ED8B28F1B02
:10109000946B956B8BC093F08F51931B8A51D8B48E
:1010A000DCD0926F006E8E51D8B4E0D0925FD8B48D
:1010B00081D03DE38FC098F0988F90C097F091C099
:1010C00096F0956BD8909833973396339533922F4B
:1010D000F8D793AF03D09481DDD094919291948905
:1010E000EA6A8D0EE96EE9D0949993BF0AD092A175
:1010F00013D09833973396339533002AD8B4C5D09C
:101100000BD098BF0CD0D890953796379737983733
:101110000006D8B4BAD0F5D7948D6BD0949D8BC00F
:1011200093F08BAF02D0988FA9D0989FA7D08EC094
:1011300092F08EC000F08A51925F8BC098F0988F29
:101140008CC097F08DC096F0956BD89098339733FC
:1011500096339533922FF8D793AF03D094839AD0D8
:1011600094939291948BEA6A910EE96EA6D0949B27
:1011700093BF0AD092A113D0983397339633953307
:10118000002AD8B482D00BD098BF0CD0D890953715
:101190009637973798370006D8B477D0F5D7948F1D
:1011A00028D0949F8FC093F08FAF02D0988F66D0D5
:1011B000989F64D08FC098F0988F90C097F091C09E
:1011C00096F093AF04D0989F948564D09495956BD6
:1011D0009291EA6A8D0EE96E70D093BF1CD08BC0DD
:1011E00093F092A106D09833973396339533002A23
:1011F0004CE095AF0BD0962B09E1972B07E1982B8C
:1012000005E1983397339633002A3FE094BD86D7A3
:1012100094BFC7D71CD0800E981B98AF04D03AD08B
:101220008FC093F00AD08BC093F0985306E1975388
:1012300004E1965302E1006A21D098BF08D0D8900B
:101240009537963797379837002EF7D71ED093AF3C
:1012500002D0988F13D0989F11D08EC000F08FC00D
:1012600098F090C097F091C096F008D08AC000F036
:101270008BC098F08CC097F08DC096F098C001F0AC
:1012800097C002F096C003F034D0006A016A026A87
:10129000036A2FD0956B961F971F981F951F952B4C
:1012A00005E1962B03E1972B01E1982B94B115D71B
:1012B00094B356D794B58AD7B3D7EF50962705E3A2
:1012C000972B03E1982BD8B49281ED52EF509727DA
:1012D00003E3982BD8B49281ED52EF50EFBE01D0CA
:1012E000800A9827D8B0928194B9FED694BB3FD794
:1012F00074D712008E0E006E7850005E79C002F036
:101300007AC001F0028E005209E0D890025202E148
:10131000015204E002320132002EF7D779AE05D037
:10132000011E021E012AD8B4022A12008A51D8B422
:10133000A5D0966F8E51D8B4A1D0965F05E37F0EED
:101340009627D8B09BD006D0810E965FD8A096D0B5
:10135000D8B494D096C000F0016A026A036A956B13
:101360008BC094F0948F8CC093F08DC092F0190EC6
:10137000966F9151925F0DE2010E935F0AE2945FC6
:1013800008E2955F06E2952B942B932B91519227BF
:1013900028D09051935F12E2010E945F0FE2955FA7
:1013A0000DE2952B942B905193279151922719E39D
:1013B000932B17E1942B15E1952B13D08F518009B6
:1013C000945F0EE2010E955F0BE2952B8F51800921
:1013D000942790519327E9E3942BE7E1952BE5D7E8
:1013E0000380962F01D00BD0D89092379337943743
:1013F0009537D8900336023601369737BAD797A17A
:1014000006D0D890013202320332973302D0000660
:1014100035E097BF1ED0D8909237933794379537E1
:101420009151925F07E2010E935F04E2945F02E242
:10143000955F1AE39051935F05E2010E945F02E21B
:10144000955F12E38F518009945F03E2010E955F6F
:101450000BE3032A09E1022A07E1012A05E1002A38
:101460000DE00132023203328BC096F08F51961B91
:1014700096AF02D0018E06D0019E04D0006A016AA8
:10148000026A036A12007A50D8B471D0006E7E509E
:10149000D8B46DD0002604E3810E002668E204D0A3
:1014A0007F0E005E64E363E07BC082F07F50821BAE
:1014B0007B8E7F8E7D508103F4CF84F07C5080033F
:1014C000F4CF03F0F3CF83F08103F3508427F4507B
:1014D0008323000E03227D508003F3508427F450B1
:1014E0008323000E026A032202227B508103F35001
:1014F0008327F4500322000E02227B508003F35016
:101500000326F4500222000E016A01227D507F0260
:10151000F3508327F4500322000E022201227C5054
:101520007F02F3500326F4500222000E01227B506A
:101530007F02F3500226F4500122002A01BE05D09A
:1015400083370336023601360006000E83AF0AD019
:10155000032A02220122015005E1025003E1035057
:1015600001E1002A82BF018E82AF019E04D0006A91
:10157000016A026A036A120073C07BF072C07AF0DB
:101580002EDD03C08DF002C08CF001C08BF000C0D6
:101590008AF023C091F022C090F021C08FF020C0CB
:1015A0008EF038DD03E3736A726A24D073C07BF077
:1015B00072C07AF014DDD88203C08DF002C08CF0C6
:1015C00001C08BF000C08AF023C091F022C090F0DF
:1015D00021C08FF020C08EF058DD03C07BF002C028
:1015E0007AF001C079F000C078F084DE02C073F0B8
:1015F00001C072F0D8822BC08DF02AC08CF029C0B7
:101600008BF028C08AF023C091F022C090F021C056
:101610008FF020C08EF039DD8D6B8C6B700E8B6F70
:10162000860E8A6F03C091F002C090F001C08FF067
:1016300000C08EF07BDE00C076F001C077F002C003
:1016400078F003C079F073C07BF072C07AF0C7DC29
:1016500079C07DF078C07CF077C07BF076C07AF0FE
:1016600003C081F002C080F001C07FF000C07EF0B6
:101670000ADF03C07BF002C07AF001C079F000C03D
:1016800078F038DE02C075F001C074F074C001F06B
:1016900075C002F0A0EF0BF06F507118800B736EE5
:1016A0006FAE05D06E1E6F1E6E2AD8B46F2A71AE53
:1016B00005D0701E711E702AD8B4712A016A026AA0
:1016C000006A036A715002E1705018E0100E726EE9
:1016D000D8906E366F36003603367150035C02E1E7
:1016E0007050005C07E37050005ED8A00306715094
:1016F000035ED88001360236722EEAD773AE05D06B
:10170000011E021E012AD8B4022A1200686A68501B
:101710000908D8A077D0D8906834036A6624016E8F
:101720006750032201C06EF003C06FF035D402C0D1
:1017300071F001C070F002C073F001C072F01CD7EC
:101740006FC0EAFF6EC0E9FF02C0ECFFED5201C0BE
:10175000EFFF685255E0D8906834036A6624E96E5A
:1017600067500320EA6EECCF6FF0ED52EFCF6EF0D2
:10177000010E685C006ED89000360050036A662443
:10178000E96E67500320EA6EECCF03F0ED52EF50A4
:101790006E5E03506F5A6FBE05D06F5230E16E50CF
:1017A00005082DE3010E685C006ED89000360050ED
:1017B000036A6624E96E67500320EA6EECCF6FF08F
:1017C000ED52EFCF6EF0D8906834036A6624E96E6C
:1017D00067500320EA6EECCF03F0ED52EF506E5CE1
:1017E000006E03506F58036E00C001F0E8AE08D0E1
:1017F0000350FF0805E303E10150FA0801E36868BC
:10180000682A85D7686A68500808D8A074D0010E85
:101810006824696E695009086CE3D89068346624BE
:10182000016E000E6720036E01C0E9FFEA6EECCF87
:101830006FF0ED52EFCF6EF0D89069346624016EF0
:10184000000E672001C0E9FFEA6EECCF03F0ED5215
:10185000EFCF01F003AE03D06FAE0AD002D06FBE5F
:1018600046D003506F5C43E303E16E50015C3FE2FE
:10187000D89068346624016E000E672001C0E9FF2D
:10188000EA6EECCF03F0ED52EFCF6AF003C06BF0DD
:10189000D89068346624016E000E6720036E01C084
:1018A0006EF06F6ED89069346624016E000E67206A
:1018B00001C0E9FFEA6EECCF03F0ED52EFCF70F01C
:1018C0006FC0EAFF6EC0E9FF03C0ECFFED5270C0CD
:1018D000EFFFD89069346624016E000E672001C0C6
:1018E000E9FFEA6E6BC0ECFFED526AC0EFFF692AB8
:1018F00091D7682A88D76D6A6C6A010E686E685045
:10190000080811E3D8906834036A6624E96E6750CA
:101910000320EA6EECCF03F0ED52EF506C2603503B
:101920006D22682AECD76DC06FF06CC06EF0716AE2
:10193000080E706EB1DE02C06DF001C06CF06CC0BC
:1019400001F06DC002F05AEF11F0959E959A838ECA
:10195000839A83808396010EC96E9EA6FED79E96BB
:10196000C00EC96E9EA6FED79E96C9500F0B716E13
:10197000706AC96A9EA6FED79E96C9507012838669
:10198000958E958A70C001F071C002F06FEF0DF076
:1019900073C07BF072C07AF0EFEC07F003C08DF0FB
:1019A00002C08CF001C08BF000C08AF027C091F01B
:1019B00026C090F025C08FF024C08EF00AEC08F00D
:1019C00003E3736A726A26D073C07BF072C07AF048
:1019D000EFEC07F0D88203C08DF002C08CF001C09C
:1019E0008BF000C08AF027C091F026C090F025C08F
:1019F0008FF024C08EF045EC08F003C07BF002C0ED
:101A00007AF001C079F000C078F074DC02C073F0A5
:101A100001C072F0D8822FC08DF02EC08CF02DC086
:101A20008BF02CC08AF027C091F026C090F025C022
:101A30008FF024C08EF045EC08F08D6B8C6B200E7F
:101A40008B6F870E8A6F03C091F002C090F001C0C7
:101A50008FF000C08EF06ADC00C076F001C077F035
:101A600002C078F003C079F073C07BF072C07AF0E6
:101A7000EFEC07F079C07DF078C07CF077C07BF0A8
:101A800076C07AF003C081F002C080F001C07FF020
:101A900000C07EF0F8DC03C07BF002C07AF001C029
:101AA00079F000C078F026DC02C075F001C074F057
:101AB00074C001F075C002F078EF0DF0686A6850EC
:101AC0000908D8A077D0D8906834036A6624016EDC
:101AD0006750032201C06EF003C06FF036D702C01A
:101AE00071F001C070F002C073F001C072F050D705
:101AF0006FC0EAFF6EC0E9FF02C0ECFFED5201C00B
:101B0000EFFF685255E0D8906834036A6624E96EA6
:101B100067500320EA6EECCF6FF0ED52EFCF6EF01E
:101B2000010E685C006ED89000360050036A66248F
:101B3000E96E67500320EA6EECCF03F0ED52EF50F0
:101B40006E5E03506F5A6FBE05D06F5230E16E501B
:101B500005082DE3010E685C006ED8900036005039
:101B6000036A6624E96E67500320EA6EECCF6FF0DB
:101B7000ED52EFCF6EF0D8906834036A6624E96EB8
:101B800067500320EA6EECCF03F0ED52EF506E5C2D
:101B9000006E03506F58036E00C001F0E8AE08D02D
:101BA0000350FF0805E303E10150FA0801E3686808
:101BB000682A85D7686A68500808D8A074D0010ED2
:101BC0006824696E695009086CE3D890683466240B
:101BD000016E000E6720036E01C0E9FFEA6EECCFD4
:101BE0006FF0ED52EFCF6EF0D89069346624016E3D
:101BF000000E672001C0E9FFEA6EECCF03F0ED5262
:101C0000EFCF01F003AE03D06FAE0AD002D06FBEAB
:101C100046D003506F5C43E303E16E50015C3FE24A
:101C2000D89068346624016E000E672001C0E9FF79
:101C3000EA6EECCF03F0ED52EFCF6AF003C06BF029
:101C4000D89068346624016E000E6720036E01C0D0
:101C50006EF06F6ED89069346624016E000E6720B6
:101C600001C0E9FFEA6EECCF03F0ED52EFCF70F068
:101C70006FC0EAFF6EC0E9FF03C0ECFFED5270C019
:101C8000EFFFD89069346624016E000E672001C012
:101C9000E9FFEA6E6BC0ECFFED526AC0EFFF692A04
:101CA00091D7682A88D76D6A6C6A010E686E685091
:101CB000080811E3D8906834036A6624E96E675017
:101CC0000320EA6EECCF03F0ED52EF506C26035088
:101CD0006D22682AECD76DC06FF06CC06EF0716A2F
:101CE000080E706ED9DC02C06DF001C06CF06CC0E3
:101CF00001F06DC002F063EF11F07A507C02F3CF77
:101D000001F0F4CF00F07D02F35000267B507C02FE
:101D1000F3500020026E12007FC08DF07EC08CF068
:101D20007DC08BF07CC08AF0916B906B8F6B8E6B5B
:101D30000AEC08F001E205E1006A016A026A036A3E
:101D400073D07FC083F07EC082F07DC081F07CC004
:101D500080F0896B800E886F88C0E9FF89C0EAFF38
:101D6000EF508D6B8C6F7F0E8C27000E8D23D890DB
:101D70008D318C3189C0EAFF88C0E9FFEF6E83C0E6
:101D800087F082C086F081C085F080C084F07FC07B
:101D90008DF07EC08CF07DC08BF07CC08AF083C05B
:101DA00091F082C090F081C08FF080C08EF096ECF0
:101DB00009F0D89283C08DF082C08CF081C08BF086
:101DC00080C08AF003C091F002C090F001C08FF093
:101DD00000C08EF045EC08F003C083F002C082F032
:101DE00001C081F000C080F088C0E9FF89C0EAFF2F
:101DF000EF0687C08DF086C08CF085C08BF084C064
:101E00008AF083C091F082C090F081C08FF080C0D2
:101E10008EF00AEC08F0B3E184C000F085C001F058
:101E200086C002F087C003F0E7EF10F0716A706AB5
:101E30006BC073F06AC072F0D8906A34026E6B3473
:101E4000036E0250FF0A040F746E000E0354756E89
:101E50007150735CD8A0E8D104E17050725CD8A0D6
:101E6000E3D16C506D10D8B4B5D07050665C786E0C
:101E700071506758796E725068247A6E7350692079
:101E80007B6E705066247C6E715067207D6E725040
:101E900068247E6E735069207F6E79C081F078C0AF
:101EA00080F07BC083F07AC082F07DC085F07CC07A
:101EB00084F0876F7EC086F06FC089F06EC088F0B6
:101EC000AEEC06F07050665C786E71506758796EB3
:101ED0007250685C7A6E735069587B6E70506624DD
:101EE0007C6E715067207D6E7250685C7E6E7350A0
:101EF00069587F6E79C081F078C080F07BC083F034
:101F00007AC082F07DC085F07CC084F0876F7EC08F
:101F100086F06FC089F06EC088F0AEEC06F07250AB
:101F2000665C786E73506758796E705068247A6E6C
:101F3000715069207B6E725066247C6E73506720EE
:101F40007D6E705068247E6E715069207F6E79C0FE
:101F500081F078C080F07BC083F07AC082F07DC0D1
:101F600085F07CC084F0876F7EC086F06FC089F0FA
:101F70006EC088F0AEEC06F07250665C786E7350FE
:101F80006758796E7050685C7A6E715069587B6ED4
:101F9000725066247C6E735067207D6E7050685C52
:101FA0007E6E715069587F6E79C081F078C080F084
:101FB0007BC083F07AC082F07DC085F07CC084F065
:101FC000876F7EC086F06FC089F06EC088F0AEEC7F
:101FD00006F0C8D070506624786E71506720796E14
:101FE000725068247A6E735069207B6E79C09FF0BE
:101FF00078C09EF0A16F7AC0A0F06FC0A3F06EC051
:10200000A2F08AEC06F07050665C786E71506758EA
:10201000796E725068247A6E735069207B6E79C035
:102020009FF078C09EF0A16F7AC0A0F06FC0A3F0BF
:102030006EC0A2F08AEC06F070506624786E715083
:102040006720796E7250685C7A6E735069587B6E47
:1020500079C09FF078C09EF0A16F7AC0A0F06FC0E9
:10206000A3F06EC0A2F08AEC06F07050665C786E49
:1020700071506758796E7250685C7A6E7350695807
:102080007B6E79C09FF078C09EF0A16F7AC0A0F0FF
:102090006FC0A3F06EC0A2F08AEC06F07250662406
:1020A000786E73506720796E705068247A6E715024
:1020B00069207B6E79C09FF078C09EF0A16F7AC0D6
:1020C000A0F06FC0A3F06EC0A2F08AEC06F07250D0
:1020D000665C786E73506758796E705068247A6EBB
:1020E000715069207B6E79C09FF078C09EF0A16F1F
:1020F0007AC0A0F06FC0A3F06EC0A2F08AEC06F028
:1021000072506624786E73506720796E7050685CE8
:102110007A6E715069587B6E79C09FF078C09EF0DE
:10212000A16F7AC0A0F06FC0A3F06EC0A2F08AECDD
:1021300006F07250665C786E73506758796E705016
:10214000685C7A6E715069587B6E79C09FF078C078
:102150009EF0A16F7AC0A0F06FC0A3F06EC0A2F095
:102160008AEC06F0702AD8B4712A6BC07BF06AC082
:102170007AF06BC07DF06AC07CF0BFDD02C079F000
:1021800001C078F071C07BF070C07AF071C07DF052
:1021900070C07CF0B2DD0150785C006E025079585E
:1021A000036E00C07AF07B6EEFEC07F000C078F0B1
:1021B00001C079F002C07AF003C07BF003C07FF069
:1021C00002C07EF001C07DF000C07CF0A5D503C048
:1021D0007BF002C07AF001C079F000C078F07AECB0
:1021E00009F002C073F001C072F07034766E713481
:1021F000776E76367736FC0E76167234026E73344E
:10220000036E02360336FC0E02160250765E035051
:10221000775A0A0E7624016E000E7720036E015065
:1022200074260350752214D6FBEF11F0F86AD09E85
:10223000078EEA6AE96A236A226A216A206A276AA3
:10224000266A7C0E256E840E246E2B6AE00E2A6EA2
:102250003C0E296E8A0E286E2F6AF00E2E6E4D0EE1
:102260002D6E8A0E2C6E810EAF6EA60EAC6E900E89
:10227000AB6E5A6A616AC180C182C184C1961A6A12
:102280001B6A826A836A816A946A956A936A7EECA1
:1022900002F08AEF02F0FBEF02F0EEEF05F0FBEF49
:1022A00005F037EF07F059685868676A300E666EB8
:1022B00086EF0BF002C063F001C062F0676A440E63
:1022C000666E5EEF0DF002C065F001C064F063520F
:1022D00003E16250020814E2655203E1645002080F
:1022E0000FE2655000080DE2FF0A03E16450130895
:1022F00008E26550010805E303E16450170801E3B3
:102300007AD063520EE1625028080BE36550000852
:1023100008E2FF0A03E16450170803E2596A586AA9
:102320006AD063520EE1625050080BE3655000081A
:1023300008E2FF0A03E16450170803E2596858688D
:102340005AD063520FE1625078080CE365500008E0
:1023500009E2FF0A03E16450170804E2F80E596E1F
:10236000586A49D0635210E16250A0080DE36550ED
:1023700000080AE2FF0A03E16450170805E2070EAD
:10238000596EE00E586E37D063520FE16250C808A4
:102390000CE36550000809E2FF0A03E164501708E6
:1023A00004E2596A1F0E586E26D063520FE1625044
:1023B000EF080CE36550000809E2FF0A03E16450EE
:1023C000170804E25968E00E586E15D07EEC02F052
:1023D00063C067F062C066F065C069F064C068F011
:1023E0006B6A030E6A6E6D6A010E6C6E59C06FF0F7
:0A23F00058C06EF01BD559D703004A
:020000040030CA
:0E00000000220E0E000181000FC00FE00F4025
:00000001FF
;PIC18F452
;CRC=E077  CREATED="14-12-15 20:18"
